:020000040800F2
:100000000027002005010008F9180008F918000869
:10001000F9180008F9180008F91800080000000095
:10002000000000000000000000000000F9180008B7
:10003000F918000800000000F9180008A9310008AC
:100040001F0100081F0100081F0100081F01000810
:100050001F0100081F0100081F0100081F01000800
:100060001F0100081F0100081F01000829110008D6
:10007000451100086111000885110008A911000848
:10008000CD110008F11100081F0100081F01000830
:10009000155B00081F0100081F0100081F01000870
:1000A0001F0100081F0100081F0100081F010008B0
:1000B0001F0100081F010008000000001F010008C8
:1000C0001F01000800000000000000001F010008E0
:1000D00000000000E53400088D3500080000000035
:1000E0001F0100081F0100081F010008DFF810D0E1
:1000F00000F03EF800480047B15C0008AFF3008014
:10010000002700200648804706480047FEE7FEE734
:10011000FEE7FEE7FEE7FEE7FEE7FEE7FEE7FEE7B7
:1001200089320008ED00000840EA01039B0703D074
:1001300009E008C9121F08C0042AFAD203E011F826
:10014000013B00F8013B521EF9D27047D2B201E0E8
:1001500000F8012B491EFBD270470022F6E710B5CC
:1001600013460A4604461946FFF7F0FF204610BD25
:10017000064C074D06E0E06840F0010394E80700F4
:1001800098471034AC42F6D3FFF7B4FF6C63000815
:100190008C6300080B4810B5816941F01C01816136
:1001A00009490A4801F0EEF907490948091D01F01B
:1001B000E9F905490748083101F0E4F9BDE81040C4
:1001C00002F0E2B800100240486000080008014058
:1001D000000C01400010014070B5144EF06A8047D9
:1001E000800722D5124C2568706A804761682844D0
:1001F000411AB1F5806F02DB6068084414E0002901
:1002000013DD6068C0F30900C0F58060814200DD45
:1002100001466068074AC0F30900104404F062F91F
:10022000002802DD61680844606070BD5461000808
:100230004C000020FE12002010B50B4600240146A1
:10024000062830D006DC05292DD2DFE801F02C2C61
:100250002C2C100000201022FD2917D002DCF029E0
:1002600021D10BE0FE291CD0FF291CD114E006246B
:1002700022460E491846FFF757FF14E00C48006865
:1002800000B1202040F0170018700BE018705A7071
:100290009870D870042406E0402119705870022428
:1002A00001E01A700124204610BD000068600008BB
:1002B0000C0000202DE9F04F87B004460590002087
:1002C000CDE9011001F10209C8490870C84914F8C4
:1002D000012B8246CA76897E80468A4274D214F8FF
:1002E000015B002D70D000BF14F8016BF10701D045
:1002F0000B2100E00A218B46B1076ED5B8F1000F43
:1003000041D0BB48DA45078A0ED1F0060CD46946C5
:10031000304601F001FD022817D17F1E03D3B349F7
:1003200009780029F3D00CE1BAF10A0F03D00A20B2
:10033000824601F013FBDFF8B48269460E2001F01B
:10034000EBFC022804D04FF000080128EBD108E0B4
:100350007F1E03D398F800100029EED04FF000085C
:10036000EFE0009989F80010009A09F10101120AE2
:1003700001F8012B009A120C01F8012B009A120EC1
:1003800001F8012B8946F10654D5A17834F8030B06
:10039000974F61F31F4014F8011BDA4540EA0160F2
:1003A0000490788A5946039003D008468A4601F0A3
:1003B000D5FABB463F8A0021304601F0ADFC022849
:1003C00003D0012808D109E0E1E07F1E791C03D0A9
:1003D000864909780029EED0B3E04CE0BBF81070F4
:1003E0006946304601F098FC022802D0012817D156
:1003F00006E07F1E14D37D4909780029F0D00FE074
:10040000DBF81410009A1140049A914208D0039925
:10041000491E0391491C03D0744909780029DDD095
:10042000DBF81410009A1140049A914275D040F004
:10043000100072E0B8F1000F79D15946DA4503D0C7
:1004400008468A4601F08AFA6948DFF8A0B1078AAF
:100450000021304601F060FC022802D0012870D152
:1004600006E07F1E6DD39BF800100029F0D068E0F5
:100470004FF001085BE0B8F1000F2DD0BAF10A0F80
:1004800003D00A20824601F069FA5948078A694672
:100490000E2001F041FC022802D0012851D107E0D2
:1004A0007F1E791C4DD0514909780029EFD048E0D2
:1004B000009889F80000009909F10100090A00F884
:1004C000011B00994FF00008090C00F8011B00996E
:1004D000090E00F8011B8146A17834F8030B61F383
:1004E0001F4014F8011B40EA01600090B10603D5DB
:1004F0003F49486101201AE05946DA4503D00846D1
:100500008A4601F02BFA3A48DFF8E0B0078A6946DC
:10051000304601F001FC022802D0012811D106E08A
:100520007F1E0ED39BF800100029F0D009E002993D
:10053000491C02912D49097819B96D1E7FF4D4AE7A
:1005400009E045B114F8011B8A0701D5C90600D599
:10055000241D6D1EF5E7012838D1BAF10A0F02D02B
:100560000A2001F0FBF92248204EB8F1000F058A5D
:1005700021D069460E2001F0CFFB022802D00128CD
:1005800024D105E06D1E21D331780029F1D01DE082
:10059000009989F80010009A09F10101120A01F886
:1005A000012B009A120C01F8012B009A120E01F88F
:1005B000012B89460AE000210E2001F0ADFB022844
:1005C00004D16D1E02D331780029F4D0DDE9011287
:1005D0000A700199487001990598A9EB0101201A48
:1005E00007B041EA0040BDE8F08F00002000002085
:1005F000080100202DE9F84FDFF844810027044668
:1006000038460D4601F1030A88F800704D4914F888
:10061000012BCA76897E8A4222D234F8026B002EE0
:100620001ED014F8019B5FEAC97001D00B2000E0D6
:100630000A20834601F092F95FEA897061D541484A
:10064000048A0021484601F067FB022802D00128F5
:100650006DD134E0641E6AD398F800100029F0D000
:1006600065E03EB9BBF10A0F02D00A2001F076F92D
:100670004FF00E093348048A6946484601F04CFBA6
:10068000022802D0012852D106E0641E4FD398F808
:1006900000100029F0D04AE000998AF80010009A72
:1006A0000AF10101120A01F8012B009A120C01F85B
:1006B000012B009A120E01F8012B8A467F1C761E30
:1006C000CFD234E0A17834F8030B61F31F4014F863
:1006D000011B40EA016000901A48B0F8108069469A
:1006E000484601F019FB022802D001281FD107E07B
:1006F000B8F101081BD3124909780029EFD016E0A0
:100700007F1C761EDED2BBF10A0F02D00A2001F058
:1007100025F90C480A4E048A00210E2001F0FCFA4B
:10072000022804D1641E02D331780029F4D02F703E
:10073000390A6970A870AAEB0500BDE8F88F0000BF
:1007400020000020080100202DE9F0470278A2F1E6
:1007500080031F2B03D800F077F9BDE8F08701F87C
:10076000012B0C4610F801CB00270125FF23B14EC9
:100770000221B14A4FF00119BCF11F0F72D2DFE81C
:100780000CF010182D3FD9E4FD71FC454D717171CD
:10079000717151555967769BBFFBFAF9F8F7F672FC
:1007A000F5000078611CFFF747FD207000F1021092
:1007B000D3E70278A14922B1012A08D0237030463C
:1007C00030E10968407800F00100096804E0096838
:1007D0004078496800F0010088471DE0067836B18E
:1007E000012E05D0022E07D000262670A0E001269B
:1007F000157001F0D5FEF8E7117001F08FFEF4E7F7
:10080000177001F0B1FE277028460BE1008800EB5D
:100810004000C000401EFDD12770D0E765702770F2
:100820000846FFE0214600F0B5FBFBE0214600F062
:100830007FFBF7E010F8015B01460DB94FF48075BE
:10084000284602F023FBED1DE8082770000454E061
:10085000007800F00301491C1176C0F38000507647
:10086000277065E0E1E0214600F0F4F8DAE004F8F2
:10087000017B0125A0462F4610F8016B17E000BF51
:1008800010F8019B824619F03F0000D14020C01DA6
:10089000C40842465146484601F0F8F925446D1C0B
:1008A0000AEB04005FEA096101D5A0442744761EE3
:1008B000E6D247EA0540B5E010F8013B0021937607
:1008C0000D460BE002EB050C10F8016B8CF81C6078
:1008D00002EB450C6D1CACF8241031449D42F1D361
:1008E000002006E015182D7F491B02EB4005401C37
:1008F000A9869842F6D32770180400F1011091E000
:100900001178022913D10078D076917E88420ED2D8
:100910000E2001F023F801F049F927706070010AF8
:10092000A170010CE170000E207145487AE023703F
:10093000484677E001781173B0F801101182B0F8E1
:100940000300508227703F486CE003461078214630
:1009500001281ED0022820D0581C10F8012B92B17B
:1009600010F8014BA5070BD5E40608E053E056E06C
:100970004DE048E043E03EE039E034E011E000D5EE
:10098000001D521EECD1C01A0F7000044F70801C65
:1009900048E0184600F09CF844E01846FFF78AFC4F
:1009A00040E005461078214601280BD002280DD0E2
:1009B0000F704F70A7700321E87880070BD541F4C2
:1009C00080202FE0284600F01BFA02E02846FFF7BF
:1009D00011FE0146F0E7B5F801004FF4802202EB6A
:1009E000804008431EE0214600F066FB1AE02146E5
:1009F00002F05EFB16E0214602F022FB12E02146E7
:100A000002F06EFA0EE0214602F08CFA0AE020466F
:100A100002F03CFB06E0214602F0F8FA02E0214633
:100A200002F0A6FA00F1011097E604F8013C4846EE
:100A300093E60000010002000801002008000020E9
:100A40000500010001000500FF2008704FF00110B3
:100A5000704700002DE9F047002201F8012B012525
:100A600010F8016B8A46A946044628E014F8017B79
:100A700017F03F0000D14020C01D4FEAD0083806D3
:100A80000BD51248016821F0F00141F080010160AE
:100A90000E4940150C31086001E001F00FFD52468F
:100AA0002146384601F0B8FE0EB901F007FD3806C0
:100AB00002D5C244C14401E0444445446D1C761E45
:100AC000D4D249EA0540BDE8F0870000040C01409B
:100AD0002DE9F04F87B08B4601F1020904460590DD
:100AE000C54900200290087001906578A41C8046DA
:100AF000002D73D0DFF804A314F8016BB1076ED595
:100B0000B8F1000F3BD0BAF8107006F011000128C0
:100B10000AD0DFF8E48269460E2001F0D3FE0228F5
:100B200012D04FF0000805E06946304601F0CAFED9
:100B3000022802D0012806D10FE07F1E03D3AE4960
:100B400009780029F0D004E17F1E03D398F8001043
:100B50000029E0D04FF00008FBE0009989F8001070
:100B6000009A09F10101120A01F8012B009A120CF6
:100B700001F8012B009A120E01F8012B8946F106AB
:100B800051D5A17834F8030B61F31F4014F8011B11
:100B900040EA01600490BAF812000390F00712D006
:100BA000BAF810700021304601F08CFE022802D005
:100BB000012807D107E07F1E791C03D08E490978F0
:100BC0000029EFD0C5E0BAF810706946304601F050
:100BD00079FE022804D0012819D108E0D9E060E0AC
:100BE0007F1E14D3844909780029EED00FE0DAF88B
:100BF000142000990A4004998A4208D00399491E9A
:100C00000391491C03D07C4909780029DBD0DAF82C
:100C10001410009A1140049A914201D040F0100043
:100C2000012816D13BE0BAF81070F10715D0B8F1E1
:100C3000000F34D10021304601F044FE022802D0DA
:100C4000012806D106E07F1E03D36B4909780029ED
:100C5000F0D07EE04FF0010821E06946304601F017
:100C600031FE022802D0012873D106E07F1E70D326
:100C7000614909780029F0D06BE0009989F80010EB
:100C8000009A09F10101120A01F8012B009A120CD5
:100C900001F8012B009A120E01F8012B8946002160
:100CA0004CE0B8F1000F25D0BAF8107069460E205C
:100CB00001F008FE022802D001284AD106E07F1E7A
:100CC00047D34D4909780029F0D042E0009889F8CF
:100CD0000000009909F10100090A00F8011B0099C0
:100CE0004FF00008090C00F8011B0099090E00F8EC
:100CF000011B8146A17834F8030B61F31F4014F8FF
:100D0000011B40EA01600090B10603D5CAF8140047
:100D1000012014E0BAF810706946304601F0D2FDA7
:100D2000022802D0012814D107E07F1E791C10D0C0
:100D3000314909780029EFD00BE001210191029996
:100D4000491C02912C49097819B96D1E7FF4D4AE63
:100D500009E045B114F8011B8A0701D5C90600D581
:100D6000241D6D1EF5E7012837D1B8F1000F24D0FE
:100D7000BAF81050204E69460E2001F0A3FD02285B
:100D800002D0012829D105E06D1E26D33178002933
:100D9000F1D022E0009989F80010009A09F10101D0
:100DA000120A01F8012B009A120C01F8012B009A8B
:100DB000120E01F8012B89460FE0019969B1BAF8CA
:100DC00010500D4E00210E2001F07CFD022804D1B0
:100DD0006D1E02D331780029F4D002998BF80010EF
:100DE0008BF801000598A9EB0B01201A07B041EA26
:100DF0000040BDE8F08F0000200000200801002026
:100E00002DE9F84FDFF820810027044638460D46CB
:100E100001F1030A88F80070B4F80160E41C002EA8
:100E200079D014F8019BDFF804B15FEA897160D5CD
:100E30005FEAC9713CD0BBF810400021484601F080
:100E400041FD022802D0012865D131E0641E62D341
:100E500098F800100029F0D05DE026B95FEAC9706B
:100E600001D04FF00E09BBF810406946484601F02A
:100E700029FD022802D001284DD106E0641E4AD384
:100E800098F800100029F0D045E000998AF8001089
:100E9000009A0AF10101120A01F8012B009A120CC2
:100EA00001F8012B009A120E01F8012B8A467F1CD3
:100EB000761ED2D22FE0A17834F8030B61F31F40E5
:100EC00014F8011B40EA01600090BBF810806946ED
:100ED000484601F0F7FC022802D001281BD107E0A8
:100EE000B8F1010817D3104909780029EFD012E0B2
:100EF0007F1C761E701CDED1BBF810400A4E00210C
:100F00000E2001F0DFFC022805D1641E611C02D016
:100F100031780029F3D02F70390A6970A870AAEBD4
:100F20000500BDE8F88F0000200000200801002027
:100F300070B584780288C07864F31F4252EA006476
:100F4000104808D0104E0025104AB44206D30124A0
:100F5000547054600EE0FF220A7070BD0C4B557047
:100F60002344B3FBF4F3022B03D90324B3FBF4F3C0
:100F700000E001231478022C00D15B1C53600D703B
:100F800070BD00000100040080A8120108010020CB
:100F9000FF5025022DE9F041884605784478027912
:100FA0004188407962F31F4141EA00663648E20712
:100FB00000F1040106D0EB074FF4807201D002600B
:100FC00000E00A60A20706D5AB074FF4007201D516
:100FD000026000E00A60620707D5AA08D3074FF055
:100FE000200201D0026000E00A60200602D5E80974
:100FF00004F0CCFF2448001F011F4EB3234E0123F1
:101000007268E70704D00768C7F30027AF421BD117
:10101000A70705D50F68C7F34027B7EB550F13D1C6
:10102000670705D50768C7F34017B7EB950F0BD1D6
:10103000A70601D56F0907D1270609D50F68C7F3A1
:101040008017B7EBD51F03D07768BF1A9F42D8D35C
:1010500002680B68C2F30022C3F34023006842EA2F
:101060004302C0F3401042EA800208680968C0F3F6
:10107000C01042EAC000890940EAC11088F80000A7
:101080000348BDE8F0810000100C0140001000E0B2
:1010900001000600074800210122017041704260F2
:1010A0000173642303824182416102764176817635
:1010B00001F05ABA08010020F8B504461748002686
:1010C0000D460278012A03D0FF21022A13D10DE038
:1010D000E178B4F8010061F31F40217940EA016032
:1010E00000906946002001F0EDFB13E02278C27603
:1010F000807E824201D329700DE0082000F02EFC92
:10110000E178B4F8010061F31F40217940EA016001
:1011100001F07EF82E700248F8BD000008010020A2
:101120000100050070470000044910B5086800F090
:101130000F004860FFF7F6FF10BD000000000240FE
:1011400070470000044910B50868C0F3031002019D
:101150004A60FFF7F5FF10BD000002407047000035
:10116000044910B50868C0F3032002024A60FFF783
:10117000F5FF10BD00000240014803F004B9000073
:1011800074600008044910B50868C0F30330020316
:101190004A60FFF7F1FF10BD00000240014802F075
:1011A000BDBF000074600008044910B50868C0F3B2
:1011B000034002044A60FFF7F1FF10BD0000024047
:1011C000014802F0ABBF0000AC600008044910B554
:1011D0000868C0F3035002054A60FFF7F1FF10BD35
:1011E00000000240014803F0CEB80000AC600008E7
:1011F000044910B50868C0F3036002064A60FFF7AF
:10120000F1FF10BD0000024010B50C46012825D1A9
:101210002A48416941F00101416100222848082C17
:1012200016D2DFE804F015040C1C252E374082602E
:101230000F2141600B2004F001FD0B2006E0C2618C
:10124000F02141600C2004F0F9FC0C2004F014FDA6
:101250001C480121A14002781143017010BD0263B6
:101260004FF4706141600D2004F0E8FC0D20EDE7C3
:1012700042644FF4704141600E2004F0DFFC0E2008
:10128000E4E782654FF4702141600F2004F0D6FC42
:101290000F20DBE7C2664FF470014160102004F0BC
:1012A000CDFC1020D2E7C0F880204FF07061416083
:1012B000112004F0C3FC1120C8E700000010024018
:1012C00000000240380000202DE9F0410E460128C0
:1012D0003BD11F4F3878002837D000241D4D082EF1
:1012E00028D2DFE806F02704090E13181D220B2070
:1012F00004F0B1FCAC601DE00C2004F0ACFCEC612F
:1013000018E00D2004F0A7FC2C6313E00E2004F07D
:10131000A2FC6C640EE00F2004F09DFCAC6509E0BB
:10132000102004F098FCEC6604E0112004F093FC1B
:10133000C5F8804001213878B1408843387004D125
:101340000548416921F001014161BDE8F0810000DB
:1013500038000020000002400010024045F6C05155
:101360004843401EFDD1704701078A0E07490A44D1
:10137000D2F8001C000602D548F6CF7001E04CF60A
:101380008F700140C2F8001C704700000050004000
:101390000207930E0A4A1344D3F8002C000605D521
:1013A00001F03000504048F6BF7104E001F44050B5
:1013B00050404BF68F710840C3F8000C7047000096
:1013C0000050004070B505464FF43026304600F01E
:1013D00059F8042811D1094C206940F0020020611D
:1013E0006561206940F040002061304600F04AF815
:1013F000216941F6FD721140216170BD002002405B
:1014000008490420CA68D20701D001207047CA6881
:10141000520701D502207047C968C906FBD50320D1
:1014200070470000002002400248016941F080013D
:101430000161704700200240F0B506464FF40057A6
:101440000D46384600F01EF804280CD1064C2069E1
:1014500040F0010020613580384600F013F8216922
:10146000BA1E11402161F0BD00200240034802492C
:1014700041600349416070472301674500200240F5
:10148000AB89EFCD00B50346FFF7BAFF03E000BF1D
:10149000FFF7B6FF5B1E012803D0002B00D105200B
:1014A00000BD002BF4D1FAE718B5002819D0114976
:1014B0008A69D20703D18A6942F001028A61C404B1
:1014C000C0F3421100F01F030B4AC0F3032001FADE
:1014D00003F100FA03F005D5D3698B43184300905C
:1014E000D06118BD53688B43184320F0E060009032
:1014F000506018BD0010024000000140194A1A490E
:10150000904203D18869C0F380007047174A904227
:1015100003D18869C0F3C0007047154A904203D1D7
:101520008869C0F300107047124A904203D188695D
:10153000C0F340107047104A904203D18869C0F34D
:10154000801070470D4A904203D18869C0F3C010E3
:1015500070470B4A904203D18869C0F3002070475E
:10156000002070470008014000100240000C0140BC
:10157000001001400014014000180140001C01400F
:1015800000200140F0B5CA78002502F00F03D20612
:1015900001D58A7813430A784FF00F0E12F0FF0F2F
:1015A0004FF001021CD004680F8802FA05F637409C
:1015B000B74211D14FEA850C0EFA0CF724EA07075F
:1015C00003FA0CF43C43CF78282F02D0482F02D0E6
:1015D00002E0466100E006616D1C082DE4D3046062
:1015E0000C88FF2C1ED944685FF0000606F108073E
:1015F00002FA07F50F882F40AF420FD14FEA860C51
:101600000EFA0CF7BC4303FA0CF73C43CF78282FB3
:1016100000D14561CF78482F00D10561761C082E96
:10162000E4D34460F0BDF0B51F4616460D460446AF
:101630000F2901D90020F0BDFFF760FF18B9012183
:10164000204600F021F86FB90120A840022E02D0F8
:10165000032E03D006E0E168814302E0E168022640
:101660000143E160082D01D3241D083D2168A80035
:101670000F2282409143216047EA86018140206821
:10168000014321600120F0BDF0B5304A304B314CB0
:10169000314D324E324FDFF8CCC0DFF8CCE051B3E1
:1016A000704503D1906940F0040004E0984204D1F1
:1016B000906940F008009061F0BDA04203D19069AC
:1016C00040F01000F7E7A84203D1906940F02000F5
:1016D000F1E7B04203D1906940F04000EBE7B84237
:1016E00003D1906940F08000E5E76045E4D190695E
:1016F00040F48070DFE7704503D1906920F004006A
:10170000D9E7984203D1906920F00800D3E7A042BE
:1017100003D1906920F01000CDE7A84203D1906971
:1017200020F02000C7E7B04203D1906920F04000CC
:10173000C1E7B84203D1906920F08000BBE7604563
:10174000BAD1906920F48070B5E700000010024023
:10175000000C01400010014000140140001801403D
:10176000001C0140002001400008014070B50C4CF5
:10177000E078012804D0A068E168451A284670BDC9
:1017800000266671A068E168451AA078012802D198
:1017900001F04EFE054460790028F2D1EEE700002A
:1017A00024000020054A931D117981F00100107179
:1017B000585CD278104300225A547047240000200D
:1017C0002DE9F0410278FF26A2F1D003072B72D851
:1017D00001F8012B0C4610F8011BD039082965D2FD
:1017E000DFE801F0041215181C2846573B48006832
:1017F00004F8010B010A04F8011B010C04F8021B98
:10180000000E04F8010C52E0FFF730FE4FE0FFF746
:101810000BFE4CE00068FFF7D5FD48E001688088CA
:1018200004E000BF11F8012BFF2A19D1401E80B23D
:10183000F8D23CE08588D0F80080382D37D8871D55
:1018400012E000BF17F8011B2DB117F8010B6D1E38
:1018500041EA0021ADB24046FFF7EEFD042801D079
:10186000FF2624E008F102086D1EADB2EAD21EE0A8
:10187000016880883E281AD8002202E038B111F8A9
:10188000012B04F8012B401E80B2F7D20FE00E7836
:10189000F9E7BFF34F8F12480168124A01F4E06183
:1018A00011430160BFF34F8F00BFFDE7641E267038
:1018B000BDE8F081FFE70C48026862B10C480B49B3
:1018C000C368806801EB83110A4B5268BDE8F041A0
:1018D00003EB80101047FF200870E9E7002004E0C8
:1018E0000CED00E00400FA0504000020FE1E0020BC
:1018F0005C000020FE1A002072B61448006880F3D5
:10190000088800F041FD124D00264FF400544FF4BA
:101910007A776C616420FFF721FD2C616C61642093
:10192000FFF71CFD2C613846FFF718FD761C052ECD
:10193000EFDBBFF34F8F07480168074A01F4E0610E
:1019400011430160BFF34F8F00BFFDE700000008A7
:10195000001001400CED00E00400FA05034949784D
:1019600009B100F005B800F06BB8000008010020D4
:101970002DE9F047304D4FF400790746C5F8009047
:1019800005F10408AC15C8F800402C60C8F8004008
:101990002C60C8F80090C8F800402C60C8F80040DF
:1019A0002C60012000F0A6FD2449CA7E01EB420014
:1019B000808C20B143461C602C60401EFBD11F4828
:1019C0008A461C30165C06E0F8B200F093FDC8F8B9
:1019D00000402C607F08761EF6D19AF81B100AEBA7
:1019E0004100868EFEB1F8B200F084FD4746C8F88B
:1019F00000402C60012000F07DFD01E03C602C6087
:101A0000761EFBD1C5F800903C602C60C8F8004001
:101A10002C60C8F80090C8F800402C60BDE8F04782
:101A2000012000F067BDC5F80090F8B200F062FD3B
:101A3000C8F80040E9E70000100C01400801002050
:101A40002DE9F047574D4FF4007307462B605C10AB
:101A5000291D0C60544E70680246521EFDD12C6048
:101A60000246521EFDD10C600246521EFDD12C6072
:101A70000246521EFDD19A460B600C600246521E71
:101A8000FDD12C600246521EFDD188460C600146F5
:101A9000491EFDD12C60401EFDD1012000F02AFD21
:101AA000F37E06EB4300818C69B1D6F80400C4468E
:101AB000CCF800400246521EFDD12C600246521E58
:101AC000FDD1491EF4D13848B1461C301E5C0DE0F2
:101AD000F8B200F00FFDC8F80040D9F80400014644
:101AE000491EFDD12C60401EFDD17F08761EEFD12E
:101AF00099F81B1009EB4100868E56B3F8B200F03E
:101B0000F9FC4746C8F80040D9F804000146401ED9
:101B1000FDD12C60491EFDD1012000F0EBFC761EAA
:101B20000BD0D9F804003C600146491EFDD12C6061
:101B30000146491EFDD1761EF5D1C5F800A03C60D6
:101B4000D9F804000146491EFDD12C60401EFDD18C
:101B50000EE0C5F800A0F8B200F0CCFCC8F80040D8
:101B6000D9F804000146401EFDD12C60491EFDD16C
:101B70004146C8F80040D9F804000246521EFDD183
:101B80002C600246521EFDD1C1F800A00C60014637
:101B9000491EFDD12C60401EFDD1BDE8F04701205B
:101BA00000F0A8BC100C0140080100202DE9F0470E
:101BB000344A4FF4007616609415111D0C60324DB6
:101BC000686803465B1EFDD1146003465B1EFDD1B1
:101BD000B2460E600C6003465B1EFDD114600346E6
:101BE0005B1EFDD10C6003465B1EFDD114600346F5
:101BF0005B1EFDD1EB7E4BB10C600646761EFDD11F
:101C000014600646761EFDD15B1EF5D100271F2607
:101C100089469046C9F800406868401EFDD100F032
:101C200075FCC8F800406968491EFDD147EAC070DC
:101C30004708761EEED1C8F800A04E46C9F800400D
:101C40006868401EFDD100F061FC4246C8F80040C3
:101C500069680B465B1EFDD147EAC07034600B46D5
:101C60005B1EFDD114600B465B1EFDD1C6F800A0C3
:101C700034600B465B1EFDD11460491EFDD1BDE8EA
:101C8000F0870000100C0140080100202DE9F05FF2
:101C900090468946824610F03F0500D140255FEA14
:101CA0004A614FF400704FF4807B01D5184901E080
:101CB0001749091D086027E0002419F8017B082650
:101CC0001AE0F8B200F016FC1149091DC1F800B085
:101CD00010484068401EFDD100F018FC0C4AC2F8C4
:101CE00000B00C494968491EFDD161087F086D1E8E
:101CF00041EAC014761E01D0002DE2D1F4405FEA23
:101D00000A6001D508F8014B002DD5D1BDE8F09F40
:101D1000100C014008010020034A52780AB100F07B
:101D200005B800F0E3B80000080100202DE9F34FEA
:101D3000DFF8AC9181B04FF400750646C9F8005049
:101D400009F104076C103C60C9F800403D603C603C
:101D5000C9F800403C60C9F80040DFF888B19BF842
:101D60001B0020B149463C600C60401EFBD1C6F30D
:101D7000470000F0BFFBA046BA463C6000F0C6FB3F
:101D8000C9F800404700C6F3870000F0B3FBCAF86B
:101D9000004000F0BBFBC9F800400743C6F3C70092
:101DA00000F0A8FBCAF8004000F0B0FB4946C9F8B3
:101DB000004047EA80000090012804D008460D60EA
:101DC000414652465EE0B0073AD500275FF01F0457
:101DD000CAF8008000F09AFB4A46C9F8008047EA3A
:101DE000C0704708641EF3D19BF81A109BF81B00C3
:101DF0000C1A641E15D0CAF8008000F087FB01465B
:101E00004846C9F80080641E05D0424653461A6011
:101E10000260641EFBD10560CAF80080C0F8008033
:101E200008E015604446CAF8008000F06FFB0146E8
:101E3000C9F8004047EAC170029929B308602EE052
:101E400002981F240768F8B200F054FBCAF800801B
:101E5000C9F800807F08641EF5D19BF81A109BF822
:101E60001B000C1A641E10D0F8B200F043FB414670
:101E70005246CAF80080484600E011600160641EC6
:101E8000FBD105601160016009E04C46C9F80050C3
:101E9000F8B200F02FFBCAF80080C4F80080474673
:101EA0005446CAF80080C9F80080CAF80050CAF841
:101EB0000080C9F80080012000F01CFB300603D52B
:101EC00009484068CBF808009BF80C00494601E03F
:101ED00027600F60401EFBD20098C0B2BDE8FE8FA5
:101EE000100C014008010020001000E02DE9F34F24
:101EF000C44B81B04FF4007506461D609C151F1D34
:101F00003C60C14948680246521EFDD11C60024631
:101F1000521EFDD13D603C600246521EFDD11C6048
:101F20000246521EFDD13C600246521EFDD198462B
:101F30001C600246521EFDD18946C97E51B14346FE
:101F40003C600246521EFDD11C600246521EFDD16D
:101F5000491EF5D1C6F3470000F0CCFABA463C6002
:101F6000D9F804004F46401EFDD100F0CFFA0146DB
:101F7000A146C8F800407868401EFDD14C00C6F369
:101F8000870000F0B7FACAF800907868401EFDD1CB
:101F900000F0BCFA0146C346C8F800907868B8461D
:101FA000401EFDD10C43C6F3C70000F0A3FA9548CC
:101FB0004F46001DC0F80090D8F80400C146401EEE
:101FC000FDD100F0A3FA0246BA46CBF80070D9F86A
:101FD00004000146491EFDD144EA82010091012915
:101FE0000ED05B46CBF8005086495246091DC1F819
:101FF00000A00146491EFDD11A60401EFDD1C7E078
:10200000B0076CD500271F247E49D046091DC1F8B2
:1020100000A0D9F80400401EFDD100F077FA014677
:102020005A46CBF80080D9F80400401EFDD147EA9B
:10203000C1704708641EE7D199F81A0099F81B107F
:10204000C846441A641E32D06E49091DC1F800A06A
:10205000D8F80400401EFDD100F058FA0346D446DB
:102060005946CBF800A0D8F804000246521EFDD114
:10207000641E0FD0DFF88C8108F10408C8F800C096
:102080000246521EFDD1C1F800C00246521EFDD1CB
:10209000641EF3D10D605B4A6446121DC2F800C095
:1020A0000246521EFDD10C60401EFDD111E01560AC
:1020B0005449091DC1F800A0D8F80400401EFDD104
:1020C00000F024FA0346CBF800A0D8F80400401E24
:1020D000FDD1029947EAC370E1B3086058E0029865
:1020E000DFF820811F24076808F10408F8B200F027
:1020F00001FA5246C8F800A0D9F804000146491E6A
:10210000FDD1CBF80020401EFDD17F08641EEDD12B
:1021100099F81A1099F81B000C1A641E27D0F8B20F
:1021200000F0E8F951464346C8F800A0D9F8040089
:102130000246521EFDD15A46CBF8001007467F1EBC
:10214000FDD1641E0AD0196007467F1EFDD11160C3
:10215000074600E01CE07F1EFBD1F2E71560196026
:1021600003465B1EFDD11160401EFDD110E05C46B0
:10217000CBF80050F8B200F0BDF95246C8F800A004
:10218000D9F804000146491EFDD12260401EFDD150
:10219000DFF87080544608F10408C8F800A0D9F8A8
:1021A00004004F460146491EFDD15A46CBF8004077
:1021B0000146491EFDD1C8F80050C8F8004001464C
:1021C000491EFDD15D461460401EFDD1012000F086
:1021D00091F9300602D50D484068B8603A7B2B462D
:1021E000786808E0C8F800400146491EFDD11C602F
:1021F0000146491EFDD1521EF4D20098C0B2BDE87E
:10220000FE8F0000100C014008010020001000E0CB
:102210002DE9F0475A4D4FF4007307462B605C10D0
:102220002E1D3460574948680246521EFDD12C606D
:102230000246521EFDD19A46336034600246521E59
:10224000FDD12C600246521EFDD134600246521E62
:10225000FDD12C600246521EFDD18846C97E49B18F
:1022600034600246521EFDD12C600246521EFDD142
:10227000491EF5D1002000F03DF93460D8F8040083
:1022800041460246521EFDD12C600246521EFDD12F
:1022900034600246521EFDD12C600246521EFDD112
:1022A00034600246521EFDD12C60401EFDD1B14665
:1022B0004FF01F080E46F8B200F01CF9C9F80040B4
:1022C00070680146401EFDD12C60491EFDD17F087B
:1022D000B8F10108EFD1B17EF07EB0460E1A761E3D
:1022E00024D0F8B200F006F921464A46C9F8004069
:1022F000D8F8040003465B1EFDD1296003465B1E2F
:10230000FDD1761E08D0116003465B1EFDD1296009
:1023100003465B1EFDD1F4E7C5F800A0116002463C
:10232000521EFDD12960401EFDD10EE0C5F800A06F
:10233000F8B200F0DFF8C9F80040D8F80400014610
:10234000401EFDD12C60491EFDD14A46C9F800400F
:10235000D8F804000146491EFDD12C600146491EF3
:10236000FDD1C2F800A014600146491EFDD12C60C9
:10237000401EFDD1BDE8F047012000F0BBB80000D1
:10238000100C01400801002070B50C4CA06940F011
:102390001000A0610A4D4FF400566E6109492846AD
:1023A000FFF7F0F8A06940F01000A0616E610549E8
:1023B0002846091DFFF7E6F82E6170BD00100240A7
:1023C000001001401460000807494FF400500861F4
:1023D0000648417821F0010141704FF0E020016989
:1023E00041F0010101617047001001400000002030
:1023F0000C4A10B54FF4005151610B4B5C7844F01E
:1024000001045C70C3074FF0E020036904D023F09F
:1024100001030361516110BD43F0010303611161C8
:1024200010BD0000001001400000002003480068BB
:10243000800501D50120704700207047080C01403D
:1024400003480068800501D50120704700207047CF
:10245000080C0140C1074FF4007001D0024901E0AF
:102460000149091D08607047100C0140C1074FF475
:10247000007001D0024901E00149091D0860704760
:10248000100C01400548016821F0F00141F0800185
:102490000160024940150C3108607047040C01408E
:1024A0000548016821F0F00141F030010160024966
:1024B0004015103108607047040C01400548016860
:1024C00021F0F00141F03001016002494015103166
:1024D00008607047040C01400548016821F0F001D4
:1024E00041F0300101600249401510310860704729
:1024F000040C0140C1074FF0200001D0024901E067
:102500000149091D08607047100C0140024800682D
:10251000C0F3C01070470000080C0140104810B50F
:102520004FF440710160202101600D4C0D49103CB9
:102530002046FFF727F80B4920460831FFF722F81D
:1025400008492046091DFFF71DF8002003F01EFD75
:102550006420FEF703FFBDE81040012003F016BD24
:10256000100C01402C60000810B50C4C0A492046A4
:10257000FFF708F808492046091FFFF703F8064946
:102580002046091DFEF7FEFF03492046BDE8104026
:102590000831FEF7F7BF00003C600008000C014066
:1025A0000F4910B54FF4407008600D4C0D49103CB8
:1025B0002046FEF7E7FF0B492046091DFEF7E2FF24
:1025C000084920460831FEF7DDFF002003F0DEFC5D
:1025D0006420FEF7C3FEBDE81040012003F0D6BC26
:1025E000100C0140206000080648816941F0040198
:1025F0008161054980150860034804491438FEF7D5
:10260000C1BF000000100240140801401C60000817
:102610002DE9F35F054600260120FFF71BFF7C4FE5
:102620004FF480743C607B4A50680146491EFDD1DE
:10263000DFF8DC91A9F10409C9F800409246401E78
:10264000FDD1E8B2FFF706FFB8463C60DAF80400B7
:1026500052460146491EFDD1C9F80040401EFDD139
:1026600077196E08F0B2FFF7F5FEC8F80040DAF807
:10267000040052460146491EFDD1C9F80040401EE3
:10268000FDD13744AE08F0B2FFF7E4FEC8F80040D1
:10269000DAF8040052460146491EFDD1C9F800404F
:1026A000401EFDD13E44EF08F8B2FFF7D3FEC8F854
:1026B0000040DAF8040052460146491EFDD14D465D
:1026C000C9F80040D146401EFDD1F019C0B2FFF755
:1026D000C1FE4746C8F80040D9F804004E460146FE
:1026E000491EFDD12C60401EFDD1FFF7B3FE3C60BA
:1026F00070680146491EFDD12C60401EFDD10120AD
:10270000FFF7A8FE3C6070680146491EFDD12C60B1
:102710000146491EFDD13E4910390A6822F0F002F7
:1027200042F080020A6049152960317E49B13C605F
:102730000246521EFDD12C600246521EFDD1491E9A
:10274000F5D13C60401EFDD1FFF770FE2C60716832
:102750000A46521EFDD180463C60491EFDD1FFF75E
:1027600065FE2C607168B1460A46521EFDD148EAEA
:102770004006BA463C60491EFDD1FFF757FEA84609
:102780002C60D9F804100A46521EFDD146EA800B8F
:102790002048027E5AB1534645461C600846401EFA
:1027A000FDD12C600846401EFDD1521EF5D1FFF729
:1027B00077FEC146A0460027164C019D2026E8B2B0
:1027C000FFF748FE4246CAF8008060680146491E8D
:1027D000FDD1C9F80020401EFDD12F446D08761EA2
:1027E000EDD1F8B2FFF736FE4246CAF800806068C5
:1027F0000146491EFDD1C9F80020401EFDD1FFF75A
:102800004FFE0120FFF726FE0BF0FF00BDE8FC9F06
:10281000140C0140080100202DE9F05F16460F4618
:1028200010F03F0400D14024DFF890B0DFF8909022
:1028300000064FF48078ABF1040A1CD43AE000257E
:10284000082713E0CBF80080D9F80400401EFDD122
:10285000FFF7F6FDCAF80080D9F80410491EFDD133
:102860006908641E41EAC0157F1E01D0002CE9D121
:10287000FD4006F8015B002CE1D1BDE8F09F00BFF0
:1028800017F8015B082612E0E8B2FFF7EFFD4246B9
:10289000CBF80080D9F804000146491EFDD1CAF8E2
:1028A0000020401EFDD16D08641E761E02D0002C53
:1028B000EAD1E2E7002CE3D1DFE70000140C01408D
:1028C00008010020034A52780AB100F005B800F070
:1028D0000DB90000080100202DE9F35F0546012035
:1028E000FFF7C4FD7E4E4FF480743460371F3C60A8
:1028F000E8B2FFF7BBFD34603C604FEA550808F0D2
:10290000FF00FFF7B3FD34603C6005EB08094FEAB8
:10291000950808F0FF00FFF7A9FD34603C60C14452
:102920004FEAD50808F0FF00FFF7A0FD34603C60D7
:1029300009EB0800C0B2FFF799FD34603C6000204D
:10294000FFF794FD34603C600120FFF78FFD346099
:102950003C60FFF797FD6348007E20B13946346044
:102960000C60401EFBD1A146B3463460FFF768FD02
:10297000BA463C6080463460FFF762FD3C6048EA3E
:1029800040083460FFF75CFD3C6048EA8004012C9D
:1029900011D0022C77D0042C75D05248007E213003
:1029A00006D049465B46524619601160401EFBD175
:1029B000FFF792FD8EE0A8072CD54FF000084646A1
:1029C0005FF02007CBF80090FFF73AFDCAF80090BF
:1029D0004FEA5801064441EAC0787F1EF2D14F46C3
:1029E000CBF80090FFF72CFD5146CAF80070464026
:1029F000F00700D00824019808B1C0F800803948D9
:102A0000007E20B15A4617600F60401EFBD1FFF7D1
:102A100063FD23E03348007E30B149465A465346B1
:102A200011601960401EFBD1FFF756FD01984FF071
:102A3000000820270668F0B2FFF718FDCBF80090D9
:102A4000CAF80090B04476087F1EF4D108F0FF0069
:102A5000FFF70CFDCBF80090CAF80090280603D5CC
:102A6000214840681F4988601E48057B95B30020B7
:102A7000FFF7FCFC48465A465146106008606D1E40
:102A8000FBD127E0FFE7174E707E48B1A80707D5B6
:102A9000212049465A46534611601960401EFBD119
:102AA000307E30B149465B46524619601160401E87
:102AB000FBD1FFF711FD707E60B1A8070AD400209A
:102AC000FFF7D4FC212049465A465346116019604D
:102AD000401EFBD10120FFF7C9FCE0B2BDE8FC9F1E
:102AE000140C014008010020001000E02DE9F35F04
:102AF000044600270120FFF7B9FCE14E4FF4807532
:102B00003560E04A50680146491EFDD1DFF8708308
:102B1000A8F10408C8F800509146401EFDD1E0B26B
:102B2000FFF7A4FC3560D9F804004A460146491E67
:102B3000FDD1C146C8F800509346401EFDD107EBB9
:102B400004086708F8B2FFF791FCB2463560DBF87D
:102B500004005A460146491EFDD1C9F80050401EE6
:102B6000FDD1A6084744F0B2FFF780FCD046CAF872
:102B70000050DBF804005A460146491EFDD1CA4602
:102B8000C9F80050401EFDD13744E608F0B2FFF707
:102B90006DFCC146C8F80050DBF804005A460146F7
:102BA000491EFDD1D046CAF80050DA46401EFDD17C
:102BB000B819C0B2FFF75AFC4F46C9F80050DAF80E
:102BC000040052460146491EFDD1C8F80050564641
:102BD000401EFDD1FFF74AFC3D6070680146491E6A
:102BE000FDD1C8F80050401EFDD10120FFF73EFC8A
:102BF0003D6070680146491EFDD1C8F80050401E76
:102C0000FDD1FFF73FFC317E59B1706843463D600E
:102C10000246521EFDD11D600246521EFDD1491EC4
:102C2000F5D1B9463D607068401EFDD1FFF708FC44
:102C30000746C8F8005070680146491EFDD1C9F822
:102C40000050B246401EFDD1FFF7FAFB0346464650
:102C5000C8F80050DAF804000146491EFDD147EAE1
:102C60004307CB46C9F80050401EFDD1FFF7E8FBF3
:102C70000246A946B2463560824840680146401E79
:102C8000FDD147EA8205012D17D0022D7ED0042DFB
:102C90007CD07C48007E21300CD05E464B465446AA
:102CA00033600A46521EFDD123600A46521EFDD1F2
:102CB000401EF5D1FFF710FCDCE0A00744D54FF033
:102CC000000847465FF02006CBF800906D4840684A
:102CD000401EFDD1FFF7B4FBCAF80090694949686E
:102CE000491EFDD14FEA5801074441EAC078761EDB
:102CF000EAD14E46CBF8009062484068401EFDD1B4
:102D0000FFF79EFB02465346CAF800605D484168E3
:102D1000491EFDD15740F90700D00825019911B18E
:102D2000019AC2F80080017E59B140685F463E605A
:102D30000246521EFDD11E600246521EFDD1491EA2
:102D4000F5D1FFF7C9FB3BE04E48007E60B15E461F
:102D50004A46574632600B465B1EFDD13A600B4631
:102D60005B1EFDD1401EF5D1FFF7B6FB01984FF079
:102D7000000820270668F0B2FFF778FB4A46CBF838
:102D80000090404840680146491E00E033E0FBD116
:102D9000CAF80020401EFDD1B04476087F1EEAD15B
:102DA00008F0FF00FFF762FB4A46CBF80090354879
:102DB00040680146491EFDD1CAF80020401EFDD1E1
:102DC000200603D5304840682E4988602D4E347B5C
:102DD000F4B30020FFF74AFB70685B464A4657464B
:102DE0001A600146491EFDD13A600146491EFDD1D7
:102DF000641EF5D13EE0234E707E80B1A0070ED553
:102E00002122DC464B465746CCF800300846401E8F
:102E1000FDD13B600846401EFDD1521EF4D1307EEC
:102E200070B15B46CC465746C3F800C00A46521EF6
:102E3000FDD1C7F800C00A46521EFDD1401EF3D195
:102E4000FFF74AFB707E18B1A00713D4002000E002
:102E500010E0FFF70BFB706821225F464B4654469B
:102E60003B600146491EFDD123600146491EFDD14C
:102E7000521EF5D10120FFF7F9FAE8B2BDE8FC9F38
:102E8000140C014008010020001000E0F0B5134AC6
:102E90000024114E23464FF4007E371F4FF4807CF0
:102EA000526816E013B911F8014B0823E50702D068
:102EB000C7F800E001E0C6F800E0C6F800C015461B
:102EC0006D1EFDD1C7F800C015466D1EFDD164080A
:102ED0005B1E401EE6D2F0BD140C0140080100202C
:102EE00070B50C4682780188C0780D4D62F31F41A1
:102EF00041EA0060A97801290CD000200021E97086
:102F00002070010A6170010CA170000EE0704FF09A
:102F1000041070BD00F00EFA0028EFD0F0E70000BA
:102F2000240000202DE9F0410078104C00F001064B
:102F30000025E0780F4600F00100B0420ED02EB11F
:102F4000A01D057045702571A560E560A078012879
:102F500006D1304600F03EFA10B1E6703D7001E057
:102F6000FF2038704FF00110BDE8F08124000020F0
:102F70002DE9F0410D460746FEF714FC0646FEF724
:102F8000F5FB04461F484278012A0BD05FF000048D
:102F900005F8016B210A05F8014B012A05F8011B10
:102FA00008D02AE039883C2900D93C218C42EFD94D
:102FB0000C46EDE7C368144E1946220008D000BF46
:102FC000C1F30B01775C491C05F8017B521EF7D158
:102FD0001919C160C17803290FD18168C2688A1AA2
:102FE000B2F5805F09D28278C1F30B01012A04D1C6
:102FF000C2707018114600F0E3F9E41C44F400308C
:10300000BDE8F081240000204C01002070B5067856
:1030100000250C46F00704D0FEF7C4FB04F8010BB2
:103020000125B00709D5FEF7A1FB2070010A6170E8
:10303000010C000EA170E0702D1D45F4803070BDB4
:103040002DE9F041104C06780F46A078012802D1F6
:10305000002000F0FBF900251EB1012E03D0002056
:1030600007E0012003E0012000F0F0F908B1A670AC
:1030700000E0A570E57008B13D7001E0FF203870F8
:103080004FF00110BDE8F0812400002070B5044627
:10309000FEF788FB0546FEF769FB25706070010AA4
:1030A000A170010CE170000E2071052070BD0000C0
:1030B000074AD378DB0703D1007830B1012804D068
:1030C000FF2008704FF00110704750700020F8E7A3
:1030D000240000200CB500212648019100910268CF
:1030E00042F4803202604FF4A063026802F40032BE
:1030F0000092019A521C0192009A12B9019A9A42C6
:10310000F3D10268920333D5012100911A490A686C
:1031100042F010020A600A6822F003020A600A689C
:1031200042F002020A6041684160416841604168C2
:1031300041F480614160416821F47C114160416843
:1031400041F4E8114160016841F08071016001685B
:103150008901FCD5416821F003014160416841F0DB
:10316000020141604168C1F381010229FAD10CBD1D
:1031700000910CBD001002400020024003498A1F4C
:1031800012798B5C03438B54704700002A000020A7
:103190004FF0E0210428086903D020F00400086102
:1031A000704740F00400FAE730B50F480F4A017845
:1031B000491ECBB2037044784FF40051A50705D5E2
:1031C00024F002044470DC070AD101E05C0707D058
:1031D00011614078C00702D0980703D0116130BD5B
:1031E0005161F6E7516130BD000000200010014040
:1031F00010B54FF0E024094860610949F02081F8DA
:10320000140D0020A061072020616FF00400FFF77B
:10321000BFFF206920F00100206110BD3F771B0037
:103220000FE000E0144910B54868144A10F00C0390
:10323000134803D0042B01D0082B0AD00260496840
:103240000F4AC1F30311121D515C0268CA400260AB
:1032500010BD4A684B6802F470124FF0020413F478
:10326000803F04EB924202D04B689B0301D5054B93
:1032700000E0024B5A43E1E70010024000127A00DE
:103280000C00002000093D000F4810B5016841F016
:103290000101016041680D4A1140416001680C4A1A
:1032A00011400160016821F480210160416821F42E
:1032B000FE0141604FF41F018160FFF70BFF0549DC
:1032C0004FF00060086010BD001002400000FFF8E1
:1032D000FFFFF6FE08ED00E070B504461048114D02
:1032E0004FF48066017841F002010170A00708D513
:1032F0000D48016801F580610160AA6931460B48FB
:103300009047E0070AD03146094801F0B9F8011E9C
:1033100004DD6A69BDE870400548104770BD0000D3
:1033200001000020546100084C000020FE12002023
:10333000FE16002070B506461D48864200D9064696
:103340001C4C1D4DE078C00710D00021AA6A162041
:103350009047E86A8047800708D5686A8047A16877
:103360000844A0600021AA6A19209047AA6A314641
:103370000120904710B10020207070BD0120207006
:10338000E078C10711D080070BD4A0680B4AC0F3C6
:103390000B0000F03F01C1F1400110442161AA6916
:1033A00090470121AA6A16209047304670BD000060
:1033B00040420F00240000201C6100084C01002046
:1033C000024A1161024A926910470000240000205D
:1033D0001C61000870B5134D134C80B1287800288B
:1033E0000CD0012028610146A2691048904720B9FD
:1033F0000121A26A1620904790B1002070BD0021E3
:10340000A26A16209047E06A8047800708D5606A64
:103410008047A9680844A8600021A26A1920904743
:10342000012070BD240000201C6100084C01002018
:1034300010B5054CE06A8047800703D5606ABDE897
:1034400010400047002010BD1C61000810B5104A54
:103450000021104C117060B1A1680F48884708B175
:10346000002010BD21690220884778B1E0688047BC
:10347000F6E70021A26A162090470021A26A1920CF
:103480009047216900208847E0688047012010BDEF
:10349000240000201C610008ED350008014A00F0FE
:1034A000D9B8000074600008014800687047000047
:1034B00074600008014800F0B5BB000074600008AB
:1034C000014800F0C5BB000074600008014800F02E
:1034D000C9BB000074600008014800F0E5BB0000B3
:1034E00074600008014800F0E9BB00007460000847
:1034F000014900F0E0BC000074600008014900F0E0
:103500004BBD000074600008014A00F03FBE00009F
:1035100074600008014A00F0B0BE0000746000084A
:10352000014900F00EBF000074600008014B00F07C
:1035300046BF000074600008014800F067BF00004B
:1035400074600008014A00F085B80000AC60000813
:103550000148006870470000AC600008014800F0B6
:1035600061BB0000AC600008014800F071BB0000C6
:10357000AC600008014800F075BB0000AC600008BA
:10358000014800F091BB0000AC600008014800F069
:1035900095BB0000AC600008014900F08CBC000045
:1035A000AC600008014900F0F7BC0000AC60000806
:1035B000014A00F0EBBD0000AC600008014A00F0D9
:1035C0005CBE0000AC600008014900F0BABE00001B
:1035D000AC600008014B00F0F2BE0000AC600008D7
:1035E000014800F013BF0000AC60000870B505464C
:1035F00080071BD5144CE068A16822690A44A260C8
:1036000002F03F01C1F14001101AC1F5805383421D
:1036100008D3C2F30B000D4A216110440C4A926991
:10362000904701E00320E07001206071A80602D5F8
:103630008020FFF7A3FD15F4607F04D0BDE8704043
:103640004020FFF79BBD70BD240000204C010020EE
:103650001C6100082DE9F84F136B14464FF0FF3A38
:10366000DA7A92077ED54FF0000900F0FF0BABF13C
:1036700015064D464F464A466FF0010C062E72D293
:10368000DFE806F080AF031E3850606B71B190F830
:103690002110002968D1012180F82110606B80F889
:1036A00020106068818941F0810181E090F820005C
:1036B000002836D06068818921F08001818115E081
:1036C0006068818921F0C0018181A06A70B1606B5E
:1036D00090F8210050B16068818A21F080018182D8
:1036E000A06A0068016821F001010160606B80F848
:1036F000202043E06068818921F020018181E06A17
:1037000068B1206B407950B16068818A21F0400136
:103710008182E06A0068016821F001010160206B8C
:1037200042713DE16068818921F0E0018181A06AF8
:1037300070B1606B90F8210050B16068818A21F00F
:1037400080018182A06A0068016821F001010160A6
:10375000E06A88B1206B407970B16068818A21F09D
:10376000400102E083E083E090E08182E06A00684B
:10377000016821F001010160206B4271606B80F8EB
:1037800021200DE1E068002871D099B1D96806299F
:1037900005D08188006803230222FDF744FF206BD7
:1037A000C17A41F00801C1726068818941F0080165
:1037B0008181F5E06068818921F008018181206BB9
:1037C000C17A21F00801C172206BC068062807D0B9
:1037D000E06849E08188002300681A46FDF723FF6E
:1037E000DEE02069002842D069B3D968062907D0F5
:1037F000042905D08188006800230122FDF713FF0A
:10380000206BC17A41F01001C1726068818A41F079
:10381000010181826068018A41F040010182606893
:10382000818941F010018181206B407908B1E06A03
:1038300020B96068818941F02001818160688189B7
:1038400041F00401B4E76068818921F004018181BD
:10385000206BC17A21F01001C172206BC06806286C
:1038600004D0042802D020690028B3D198E09DE05C
:103870005A795AB9626B009292F8212032B9626883
:103880009689360705D51688760602D46046BDE8C7
:10389000F88F5E4601EB011C0CEB4C0B01EB011C9D
:1038A0006FF006080CEB411E152E7BD2DFE806F008
:1038B000870B0D2E14171A87878787878787878737
:1038C0003033515B7B00012311E023789B071DD52A
:1038D0004FF4106502230AE00827042307E00227BB
:1038E000052304E023789B0610D5202706239A465B
:1038F00010F4E06C4FF4805368D06FF00806BCF50C
:10390000807F77D0BCF5E06F77D15BE04046BEE7C3
:103910000098418344E0D868052847D011B3908AC5
:1039200040F004009082BE4AA068B2FBF0F2012091
:1039300002FB00F38B4202D8401CFF28F8D9B0F5F7
:10394000807F33D061680A8B22F0FF0202430A8332
:1039500026E0D868062829D1FF2927D8108BC0B2C5
:10396000084310831CE0D86806281FD1AC49A06822
:10397000B1FBF0F35FF0010003FB00F1C8246143E9
:10398000B1EB4B0F02D2B1EB4E0F02D8401C4028D6
:10399000F2D340280AD0118B21F0FF01014311839B
:1039A000002074E70BE0D868062801D050466EE787
:1039B0000029F5D0908A40F010009082F0E76FF077
:1039C000030064E710F4405F17D006E010F4405F96
:1039D00003D000BF45F02005994610F4405614D09E
:1039E0009E420CD0B6F5005F0CD06FF009004EE798
:1039F00000E002E010F4405FECD0304647E749F4C5
:103A0000806301E049F4C063994610F4404313D049
:103A1000B3F5804F08D0B3F5004F08D0B3F5404F51
:103A200008D06FF00A0032E745F4005504E045F491
:103A3000405501E045F4805510F4403C17D04FF458
:103A400080366FF00B03B44513D07600B44518D020
:103A50004FF44036B4451FD1D4F800C05FEA0C687B
:103A60001AD55FEACC5C17D547F4E06710E0002672
:103A70000EE094F800C05FEA0C6C0DD547F4807737
:103A800006E0B4F800C05FEACC5C05D547F4C06737
:103A9000BAF1020F02D017E01846F8E610F48023BE
:103AA00007D0B3F5802F02D06FF00C00EFE645F49D
:103AB000806510F4002007D0B0F5002F02D06FF021
:103AC0000D00E4E645F40075A368890003EBC3002C
:103AD00000EB0310B0FBF1FCB0FBF1F800936423A2
:103AE000B0FBF1F0B0FBF3F06FF01801484308EBC6
:103AF0008000322101EB0010BCFBF3FCB0FBF3F0C3
:103B0000009B6CF31F101B0181B2B3FBF1F00009A5
:103B100064235843B0EB4B0F02D2B0EB4E0F02D8E8
:103B20006FF00700B3E6908920F400509081606840
:103B30000181216BC1F80CA0206B0661206BC1686C
:103B4000062902D0C07A000706D5E06860B18188F6
:103B500003230068022205E0E06828B18188002381
:103B600000681A46FDF75FFD206BC16804291ED06E
:103B700006291CD0C07AC00619D5206950B18188A9
:103B800000230068012203E08188002300681A46B0
:103B9000FDF749FD6069A0B1216BC96802290AD00F
:103BA000062908D08188002300681A4607E02069AA
:103BB0000028E9D1EEE78188006803230222FDF79F
:103BC00032FDA06960B1B6F5803F23D0B6F5403F25
:103BD00020D08188002300684FEA0302FDF723FD0F
:103BE000E06928B18188006800230122FDF71BFDF0
:103BF0006168A1F80C9060680582606887826068DF
:103C0000818941F400518181206BC17A41F0040126
:103C1000C172C5E68188032300680222DEE7000046
:103C200000CA9A3B026B21F00101126912B1B2F590
:103C3000803F0AD1C06940B1026800799268C240F1
:103C400012F0010F01D141F0010121F00E00704787
:103C5000C16A406B21B1096849680068401A704721
:103C600000697047426B92F8212012B141F00101C6
:103C700005E0426812889211521C62F30001026B47
:103C8000507960F34101907960F382010846D1795F
:103C900061F3C300117A61F30410517A61F34510A6
:103CA000917A61F386107047816A406B21B109688F
:103CB00049684068401A7047406970472DE9F041F3
:103CC000446822880021A5890B461540AE060F46A0
:103CD0004FF001054ED5066B96F805C0BCF1000FFC
:103CE00003D0F668022E04D007E0A188F5712021E8
:103CF00040E0466BF669012E2BD0A388466BB46872
:103D000004F1010CC6F808C023704468A489660554
:103D10000BD4E40409D5466B4FEA132CB46804F1C4
:103D2000010EC6F808E084F800C0466B3469641CD4
:103D30003461466B3668B4421CD14468A68926F0CB
:103D40001006A681046B6771046BE468022C02D034
:103D50000FE0A488D2E7446BE669E761012E04D046
:103D6000022E06D0032E05D101E0012102E004213C
:103D700000E002214668B4891440E40602D5B48804
:103D800041F04001B4891440240651D5446B94F8A5
:103D900020C0BCF1000F04D0B38943F00103B3810C
:103DA00046E0D4F814C06668664519D0036BDB683A
:103DB000022B02D1E369022B2FD0E3685E1CE66080
:103DC00044681B78A4895FEA445C09D4E40407D5FD
:103DD000446B06F1010CC4F80CC0347843EA0423A8
:103DE000446B6669761C66614468A380436B5C68BB
:103DF0005B699C421CD143689C8924F080049C81AF
:103E000043689C8944F040049C81436B83F8217093
:103E1000036BDC68022C02D008E0638BE0E7446BA4
:103E2000E469012C04D1DB7ADB0601D441F0010105
:103E300043689C891440640605D59C8924F040049D
:103E40009C8141F00801130705D543689B88036BEB
:103E500041F02001DD71930705D543689B88036B12
:103E600041F480715D72D30705D043689B88036B72
:103E700041F400719D72D30508D543681C8824F471
:103E800080741C80036B41F080011D72920506D581
:103E90004268138823F40073138041F48061002981
:103EA00007D0006B0268002A03D0BDE8F041084645
:103EB0001047BDE8F08110B50C46096BCA7AD207ED
:103EC00001D0002010BD0860216B00200871216B1B
:103ED0004871216B8871216BC871216B0872216B4D
:103EE0004872216B8872216BC860616B81F8210078
:103EF0002421606BFCF731F9608CFDF7D5FAE0689E
:103F000018B100680121FDF7BFFB206918B10068F6
:103F10000121FDF7B9FB606918B100680121FDF7C7
:103F2000B3FBA06918B100680121FDF7ADFBE069A2
:103F300018B100680121FDF7A7FB216B0120C872B1
:103F4000BFE70000114A10B5114B1249904204D14D
:103F5000CC6844F48044CC6005E0984203D10C69FD
:103F600044F400340C6100BF00BF00BF00BF9042AA
:103F700004D1C86820F48040C86010BD9842FCD1CC
:103F8000086920F40030086110BD000000380140CD
:103F900000440040001002402DE9F0470C46DFF8D5
:103FA0007081DFF870915C4E01004FF000054FF01A
:103FB000010763D0281F01295ED002295CD1206B44
:103FC000C17ACA077ED0890755D40571206B457127
:103FD000206B8571206BC571206B0572206B45725B
:103FE000206B8572606B80F82150606B4583606B3D
:103FF000C561606B80F82050206BC560206B056147
:10400000216B0320C8726168414503D1B06940F457
:104010008040B0616168494503D1F06940F40030E7
:10402000F06194F92400002809DB00F01F0107FA71
:1040300001F14009800000F1E020C0F8801294F9FD
:104040002400002808DB00F01F018F404009800099
:1040500000F1E020C0F80071E06A18B14179007900
:10406000FDF7D2F8A06A18B141790079FDF7CCF8D4
:104070006068FFF767FF0020BDE8F0876068FFF722
:1040800061FF94F9240000280CDB00F01F018F4031
:104090004009800000F1E020C0F88071BFF34F8F2D
:1040A000BFF36F8FE06A18B141790079FDF70CF921
:1040B000A06A18B141790079FDF706F961684145B8
:1040C00005D100E021E0B06920F48040B061616872
:1040D000494503D1F06920F40030F061206B05718F
:1040E000206B4571206B8571206BC571206B05724B
:1040F000206B4572206B8572606B80F82150206BBD
:10410000C17A21F00201C172B5E74FF0FF30B3E789
:1041100000380140004400400010024030B4C16A41
:104120000968496819B1416B096800292CD14168B7
:104130008A8922F010028A81026B00210B46D26824
:10414000022A0BD1426BD469D361012C04D0022C1A
:1041500004D0032C05D103E0012102E0022100E09C
:104160000421426B14681461026B53714268938995
:1041700043F020039381006B0268002A04D00029D9
:1041800002D030BC0846104730BC70472DE9F041E2
:1041900040B139B1136BDC7A640706D44FF0FF30BD
:1041A000BDE8F0816FF00400FAE75B796FF001047D
:1041B000012B60D053689D8925F020059D81536BAC
:1041C0001960156B00232B72156B6B72156BEB71FD
:1041D000156BAB72556BA860556B2B61156B01238A
:1041E0006B71156B8023ED68022D04D1556BED6961
:1041F000012D00D10023D76A5FB3BD794FF440563B
:1042000006EA05351D4345F002035568AE895FEAAD
:10421000C64C03D5760501D443F4A0633E683360F1
:104220002D1DB560F0607160D06A0068036843F0CE
:10423000010303605068838A43F04003838250681F
:10424000838943F010038381106BC068022805D076
:104250000FE05068838943F03003F4E7506BC36983
:104260003BB90223C361506B1A3000F006F8801C82
:1042700001D0002094E7204692E72DE9F041144652
:104280000D46060008D03DB1206BC07A400706D429
:104290004FF0FF30BDE8F0816FF00400FAE7606B8B
:1042A0006FF0010890F82110E9B9012280F821206F
:1042B000606B8027C660606B4560616B0020486161
:1042C000206BC068022811D1616BC86910B1022847
:1042D0000BD00BE0CA61606B224629461830FFF70D
:1042E00055FF801C02D14046D4E70027A26A0AB3DA
:1042F00090794FF4405101EA00306168384340F052
:1043000012008B89DF0403D55B0501D440F4A06063
:1043100012681060091D9160D6605560A06A00683F
:10432000016841F0010101606068818A41F080010B
:10433000818204E06068818941F0800181810020F0
:10434000A8E710B501225404931E10B1012818D11A
:1043500009E0086B006908B1A04212D1886970B108
:104360000168007909E0086B006908B1A04208D132
:10437000886920B101680079103082400A6100200C
:1043800010BD184610BD816A09684B68426B5168C0
:104390000BB1002912D15161426B002182F821102A
:1043A00041688A8942F040028A81006BC168022913
:1043B00004D00168002901D001200847704770B57A
:1043C0001C4615460B4606000CD05BB155B1206B60
:1043D000C17A4A074FF0FF3102D5C068022804D0E5
:1043E000084670BD6FF0040070BD616B032022466B
:1043F000C86129461846FFF7C9FE0028F4D12246B5
:1044000029463046BDE87040FFF737BF10B5044677
:10441000C06828B18188002300681A46FDF703F9B7
:10442000206928B18188002300681A46FDF7FBF84F
:10443000606928B18188002300681A46FDF7F3F807
:10444000A06928B18188002300681A46FDF7EBF8BF
:10445000E06928B18188002300681A46FDF7E3F877
:10446000208CFDF721F8216B0020C87210BD0000E0
:104470000148006870470000706000080020704725
:1044800070B50B4D0C460346D5E90C0188420BD99B
:10449000401A844200DD044622461846FBF744FEDB
:1044A000686B2044686300E00024204670BD000073
:1044B0009800002010B5094CE06A8047C0070BD176
:1044C0004FF480610648FFF7DBFF011E04DD6269DF
:1044D000BDE810400248104710BD000054610008BC
:1044E000FE1600202DE9F041194C0D460746D4E98F
:1044F0000401401A17490A88101A002802DC00201B
:10450000BDE8F081854200DD0546D4E906020026BB
:10451000904210D3104A0988431911448B420AD3A0
:104520000E1A904632463946FBF7FEFD3744AD1B66
:104530004046C4F8188035B12A463946FBF7F4FDE9
:10454000A0692844A0612169A81901442161D7E725
:1045500098000020A66100087E12002010B5054CCE
:104560006068002805D10120606000F005F8002097
:10457000606010BD980000202DE9F047224CA06833
:1045800000283BD0D4E90401421AE0684FF000064D
:10459000104335D01D481E4FDFF878800088DFF8C3
:1045A00078903D182046C1696AB1A069814203D361
:1045B0008818A84200D36A1A99F8003038F8130016
:1045C000904200DA02461548E660007840F080002C
:1045D00001F06EFAE1690144E16162698D420244D1
:1045E000626100D1E761216991420BD199F8002005
:1045F00038F81210814205D10120E060BDE8F08753
:10460000A660FBE7E660F9E798000020A6610008D5
:104610007E120020AA61000873000020A461000837
:1046200010B50B4C206A18B1A06A401CA06210BDE6
:1046300001202062606200F00DF8002060622062BC
:10464000D4E90C018842F2D0401AFFF733FF10BDC5
:104650009800002010B5134C144A1348216B12889F
:10466000144B081A101A124A1B7832F81320904281
:104670000EDB1148007800F09DFE216B084420639A
:10468000A06A00280CD0616A002909D1401E06E00A
:104690000120E062606A002802D0A06A401CA0628B
:1046A00010BD000098000020BE120020A861000884
:1046B000AA61000873000020A561000810B5044637
:1046C000400702D52046FFF7ABFF200704D5204660
:1046D000BDE81040FFF742BF10BD70470020704793
:1046E0000020704710B50B4800F01CF8002810D0CF
:1046F000084A0948116801700B0A43700B0C83705B
:10470000090EC170117901715179417191798171ED
:10471000012010BDD0000020BC11002010B500F019
:104720000DF810BD04498A6802608A898280897BFD
:1047300081710120704700004C00002010B5044C2E
:104740000448A1688847216902208847012010BDDC
:1047500054610008D932000810B5054C002118201A
:10476000A26A90470021A26A19209047012010BD3B
:1047700054610008012070472DE9F0410024DFF862
:10478000D08005462746D8F82820264621461820FE
:1047900090470021D8F82820192090470021D8F808
:1047A0002820152090470021D8F82820162090476F
:1047B000287948B1012802D0022805D102E04FF43F
:1047C000004601E04FF48046687948B1012802D0E4
:1047D000022821D102E04FF4005701E04FF4805746
:1047E000A879052806D0062807D0072808D0082869
:1047F00012D107E04FF4A06404E04FF4C06401E07C
:104800004FF4E0643C43344344F00100D8F82820DE
:1048100029684446904710B10020BDE8F0810D485A
:1048200029688160A9888181A9798173002101604B
:1048300041600121A26A152090470121A26A162039
:104840009047A2694FF48061034890470120E4E754
:10485000546100084C000020FE12002010B51048E2
:104860000024104944608460C4600461C0E90541CB
:10487000C0E9071444620C498462C0E90B414163FA
:104880000480FFF769FF06484FF416513830016085
:104890000471447108218171FFF76EFF10BD0000A3
:1048A000980000207E120020BE12002010B5FFF7F5
:1048B000D5FF10BD70B5174C00250126206A50B9F0
:1048C000D4E90C10814206D11348814203D0206301
:1048D000E56225626063A06A70B1206A60B9E06A2F
:1048E00050B92662FFF7B6FE2562D4E90C01884272
:1048F00002D0401AFFF7DEFDD4E90101084308D1D8
:10490000D4E90401884204D06660A660FFF734FE53
:10491000656070BD98000020BE1200200020704726
:104920000020704700207047024910B50880FFF74B
:1049300021FF10BD98000020084810B5C17802681A
:1049400061F31F6206490A6002790A7142794A716D
:10495000807988710846FFF70FFF10BDBC11002059
:10496000D000002000B50346FCF7FEFC43F2300106
:1049700018465DF804EBFCF70BBD0000F0B583783A
:10498000204A03F00F041E0657688188158803F03B
:104990000F0307EB031304D5491C21F001011D602F
:1049A00011E09D603E2909D91F3121F01F014FF010
:1049B000FF3505EB411545F4004503E0491C21F0A6
:1049C00001014D02DD6013880B441380C07810F0A4
:1049D000030006D0012807D0022808D003280AD1F6
:1049E00007E04FF4007106E04FF4806103E000211E
:1049F00001E04FF4C061044A214302EB8400C0F897
:104A0000001CF0BD4400002000500040002802D1EE
:104A10000149C020088070474400002000F07ABAA5
:104A200009498A1550B101200860002008600B1D5B
:104A300018604FF4E0500860044803E00320086069
:104A40000248001D02607047405C004010080140B1
:104A500010B50B4C0B48A28801788A4200D9CAB223
:104A60001AB907490020183908718020216801F01F
:104A70001FF8216801442160A188081AA08010BD98
:104A8000880000209061000810B5064C00202168C5
:104A900000F090FC216801442160A188081AA080E0
:104AA00010BD00008800002070470021FCF770BC9A
:104AB00043F22001FCF76CBC2DE9F047DFF844829B
:104AC0000646A8F1080580074FF0000AA5F1180472
:104AD00024D500F0C5FF98F800004746C009FFF74D
:104AE000E3FFF888A8803978C1F3411010B101289C
:104AF00077D17DE098F80120834FDFF810920C2ADF
:104B00006FD2DFE802F0060C951C952B3B953F45D4
:104B1000526100F04FFD33E0FFF79AFF96E000206E
:104B200000F086FD00285CD000F0A0FF386820B1BE
:104B30006169002921D0082050E0484653E0012057
:104B400000F076FD002873D000F090FF3868002850
:104B5000F3D06169002979D004203FE011F01F0FE4
:104B600066D198F80200012140F08000207000F02A
:104B70007F0000F067FF00F079FF67E000F040FC85
:104B800078B3C9E711F01F0F52D15E481F3819E002
:104B900000F0A4FD28B300F069FF386818B161691E
:104BA00029B301201AE05A481DE001F01F01012934
:104BB0003ED16178A9B198F80400A178884237D233
:104BC000544908442860A7E700F050FE48B100F0BF
:104BD0004DFF386830B1616949B1022001F0C2F976
:104BE00034E025E04C48016809B1084680472DE0D3
:104BF00011F01F0004D0012805D0022818D111E0BF
:104C000000F02AF913E000F02DF9F8B900F080F96E
:104C1000E0B900F0CFF8C8B900F0CEF8B0B900F0B4
:104C20001FF904E000F0C4F880B900F017F968B982
:104C300098F80010090604D4B8F8060008B100205E
:104C400000E0802000F008FFA5F804A0700735D52B
:104C500098F80000474600062ED4A88858B3FFF7FE
:104C600013FFA88838BB3878C0F34111F1B101298E
:104C70001CD110F01F0004D0012805D0022815D146
:104C80000EE000F077F810E000F07AF898B900F044
:104C900047F880B900F046F868B900F06FF804E012
:104CA00000F03CF838B900F067F820B9802000F037
:104CB000D3FEA5F804A001E000F0DEFE300713D516
:104CC00098F80000000606D5A888217908430BD083
:104CD000FFF7BEFE08E02078010605D500F07F0052
:104CE0002070002100F0AEFE700602D50020FFF714
:104CF00039FE300604D5BDE8F0478020FFF732BE0C
:104D0000BDE8F08790000020106200080C620008E7
:104D10000462000839000020086200080020704783
:104D20000020704710B51048104A0179127891425E
:104D300003D00F4A1278914214D1417821B102294F
:104D400005D020290ED10AE0FFF7EAFD02E04088F5
:104D5000FFF7E8FD30B100F089FE012010BDFFF73C
:104D6000EBFDF7E7002010BD90000020A2610008D5
:104D7000A3610008002070470020704700207047A2
:104D800010B50948094A01791278914209D1407851
:104D9000092806D100F0D8FA18B100F067FE01200A
:104DA00010BD002010BD000090000020916100089F
:104DB000002070470020704770B52249224A0879C8
:104DC0001278904203D0214A1278904238D11D487F
:104DD00049781F4C1F4D408804291FD007DC79B14A
:104DE00001290FD002290BD0032929D111E0202954
:104DF00006D021291AD022291BD0232920D11BE03B
:104E00002C6011E0FFF76CFC05E02C60FFF720FE42
:104E10000AE0FFF763FC0028F7D111E0FFF72EFB53
:104E20000CE000BF00F022FE012070BDFFF75AFC2D
:104E3000F1E7FFF779FD01E0FFF770FD0028F1D100
:104E4000002070BD90000020A2610008A36100084E
:104E5000BC1100208800002000207047002070470F
:104E6000002070472DE9F041224C23492079097830
:104E700088423DD16078214D214E224F0C2837D2F7
:104E8000DFE800F03606212D363636363616243267
:104E900000F070F960B3E078012802D0032803D055
:104EA00003E01948286000E02E60FFF7D1FD13E011
:104EB000E078022802D0032803D00DE013482860D0
:104EC0000AE02E6008E000F03DF90AE000F014FA74
:104ED0000CE000BF00F0CAFD0120BDE8F08100F049
:104EE0003FF928B12F60E0E700F024FA0028F1D163
:104EF0000020F2E790000020916100088800002067
:104F000042000020BC110020FD1100203E120020B4
:104F100000207047084800214170C1600161416173
:104F20008161C16141808180016241628162C18091
:104F3000C162018170470000D80000202DE9F05FB8
:104F4000DFF84081DFF840A1DFF840B10127504C85
:104F500008F101090025A561606910B1A761BDE8EC
:104F6000F09F6761A088618888421AD3206AC0B91F
:104F7000E561A580012398F8001008F101021846A8
:104F800000F0E2FE0004000C60800CD04149C4F83F
:104F90001C800978012902D8C4F81C903BE0401C11
:104FA00060806088B8BBE068A8BB216999B33948C4
:104FB0004246007801280FD81570A5800223521CA4
:104FC0000021012000F0C0FE0004000C608001D030
:104FD000C4F81C9025611EE01678202E00D3002610
:104FE00007FA06F0084240D0701CC1B21170A580CB
:104FF000022308F10102012000F0A6FE0104090CC1
:10500000618003D0491CC4F81C806180216907FAC3
:1050100006F0814321616088216A01432AD0A1887A
:10502000401A9BF8001086B23AF81100B04200D244
:105030000646676218483246E169007840F0800011
:1050400000F036FDE06915493044E061A088304445
:1050500080B2A080098888420AD29BF800103AF8F2
:105060001100B04204D1276205E0761CF6B2B4E725
:10507000256200E065626561A06900287FF46BAF7E
:105080006DE70000FC11002098610008730000200B
:10509000D80000209C610008926100089E61000811
:1050A000F8B5194C194D0026E08800B9A5621848DA
:1050B000A16A007800F07EF90004A16A000C0144A6
:1050C000A162E18801448BB2E3800AD011490988CA
:1050D0008B4206D2114A1049127831F812108142DF
:1050E00010D90F48017801200129009003D8002130
:1050F000064A022003E029786A1C02205B1E00F0A9
:10510000EDFEE680F8BD0000D80000203D12002032
:1051100093610008A06100089861000873000020F6
:105120009D61000810B50446000702D52046FFF730
:1051300005FF600704D52046BDE81040FFF7B0BF6B
:1051400010BD0000034804498078085C03490870DA
:10515000012070479000002040000020BC1100207A
:1051600010B500F0EFFD02490870012010BD0000ED
:10517000BC1100200B4910B5C8780022012804D0CA
:10518000022804D0032806D103E0074A02E00020E9
:1051900010BD064A521C8978002300F0D5FD01207D
:1051A00010BD000090000020FC11002041000020F4
:1051B0002DE9F05F4648007800287DD0454800275B
:1051C0003D4601784A1C0270434A1478042204EBDD
:1051D000440A02FA0AF2521E914201DB05700127CD
:1051E0003E4900230A88FF2A01D2521C0A803C4A09
:1051F0008E46098832F81490894500D101238346F0
:10520000002100699BF8006043E000BF4FF0000CF4
:105210006FB1344A545CFF2C01D2641C5454324C9C
:10522000645C24B1525CA24201D34FF0010C2E4ABF
:105230004FF0020808FA0AF8525C02FA08F44C45EA
:1052400002DA0AB1012400E0002433B12CB14FF09E
:10525000010808FA01F848EA0000DFF8908018F821
:10526000018042450AD01F4A525C424503D30122C5
:105270008A40104300261C4A02F80180BCF1000F4E
:1052800005D014B901228A401043164A5554491CCE
:10529000C9B2174A12789142B8D3CBF810005946D8
:1052A0008BF800600BB1AEF8005008B1CA6852B17B
:1052B000104A1378012200E003E09A409043CBF8B3
:1052C0001000BDE8F09FBDE8F05F0020FFF736BE9C
:1052D00071000020D8000020730000203C00002056
:1052E000946100083E0000203F00002040000020A4
:1052F0009C610008FC11002010B50A48094980781B
:10530000C97810B1084A815409E00020074B084AC7
:1053100002E01954401CC0B21478A042F9D3012015
:1053200010BD0000900000203F0000204000002041
:105330009C610008034810B5807800F0CDFD012085
:1053400010BD0000900000200C4908B5C87800226C
:10535000012804D0022804D0032806D103E000204D
:1053600008BD074A00E0074A521C00230093CB887F
:10537000897800F0B3FD012008BD000090000020F6
:105380003D12002041000020054810B5C16941F4DC
:105390000001C16100F006F8BDE81040FDF724B936
:1053A000001002404FF0E0214FF48010C1F80001DE
:1053B0007047704770B50F4B00F00F020E4C5B68E2
:1053C00003EB02129368928904EB4303C2F30904CE
:1053D0000022651C05E000BF33F8046B21F8026B66
:1053E000521CB2EB550FF7D34FF44051FBF7D0FFEF
:1053F000204670BD4400002000600040704700005F
:105400007CB54048A0F120050178A0F1080411F016
:105410001F0102D0012973D15CE0C37839483949B2
:105420002038394AC0788978082B69D2DFE803F040
:105430006804123F6868082C34482060122047E056
:10544000117800295CD018B1314820600A203FE073
:105450003048FAE712780AB9012851D018B12E481D
:105460000090002008E02D48FAE7009A137813B165
:1054700053881A440092401C8142F6D1009801786A
:10548000E9B32060408823E01278C2B318B1244801
:105490000090002008E02348FAE7009A137813B13F
:1054A00053881A440092401C8142F6D1E6E71E4818
:1054B0000090002005E0009B1A780AB11A4400927F
:1054C000401C8142F7D100980178C1B1206000787A
:1054D000019005E001A9684600F02AF800280DD0E7
:1054E000A1880198814208D9104980B2A08009782A
:1054F000491E084201D10120287101207CBDFFE72F
:105500000020FBE7900000208D6100083A6200084F
:105510004D6200084C620008BA6200084E62000842
:10552000BC620008BB620008BE620008906100080F
:1055300030B5164A164C174BD5781279212D02D06A
:10554000222D20D115E02478A2421CD1124A1478D1
:10555000124A12780CB9012A15D042B1104A0260E1
:105560001046104A128810441860092008E00E4ABC
:10557000F5E72078824206D10C4818600C48008874
:105580000860012030BD002030BD000090000020E8
:1055900091610008880000208D61000873000020E0
:1055A000BA620008386200084E62000814620008FF
:1055B0003662000870B51C481B4D0078A5F108053F
:1055C00010F01F040AD01848A5F11801174B4A78AB
:1055D0000079012C06D0022C24D109E012481A3897
:1055E00028601DE0F2B1897888421BD2002015E0C6
:1055F00000F08F04200605D504F00F064FF480302C
:10560000B04001E00120A0400AB922070AD18A680F
:10561000024207D0C9680142E8D0012018802B60FF
:10562000012070BD002070BD90000020BC11002042
:1056300070B5294A0146A2F12004107810F01F032A
:105640001046408804D0012B28D0022B26D110E030
:10565000012823D129B100F029FAE08840F00200A6
:1056600005E0002000F022FAE08820F00200E0804F
:1056700030E0127902F08F06320605D506F00F02EF
:105680004FF48035954001E00125B54062782AB19C
:10569000320703D0A2682A4200D008B1002070BDB2
:1056A0000D482038C06800EA050031B190B9304695
:1056B00000F0D2F9E06828430BE058B12069284295
:1056C00008D13046FFF74EF93046FFF797FEE06805
:1056D000A843E060012070BD900000202DE9F84F44
:1056E0005C4F00200090387810F01F0F6FD1B87811
:1056F0004FF000094FF0010B4FF4803AA7F120065C
:1057000000287AD0544801783046C07809B9012879
:105710005DD008B1514C6BE0514C69E060780228D3
:1057200004D0042844D0052860D144E06179B878D9
:1057300081423BD170702079B0700020494A4A49BB
:1057400003E000BF02F80090401C0B889842F9D398
:105750000125B0460BFA05F0D8F80810084202D02F
:105760002846FFF7A2F9D8F808100AFA05F008420F
:1057700003D045F08000FFF798F96D1C102DE9D398
:105780004FF00110C8E902090120C8F81090FFF796
:105790003DF9E0794006B8F8060002D540F0010076
:1057A00001E020F00100A8F806001FE060881EE07C
:1057B000E07800901AE00098C0B9A07800F08F055A
:1057C000280605D505F00F010AFA01F002E03CE0D9
:1057D0000BFA05F0B16801432046B160FFF7CEF83F
:1057E0002846FFF765F9284600F020F920780444A0
:1057F0002078002892D124E0FFE7C84686F801907F
:1058000001245D464FEA0A09B16805FA04F008422E
:1058100002D02046FFF749F9B16809FA04F00842BE
:1058200003D044F08000FFF740F9641C102CEBD348
:105830004FF00110C6E902080020C6F81080FFF7FB
:10584000E5F8B8787178884202D00020BDE8F88F7A
:105850000120FBE7900000208D610008BA6200087B
:105860004E620008390000208E6100082DE9FC5FBF
:10587000444E00273D463078BB4600F01F00B84636
:1058800001287DD1A6F120014878002875D03E4836
:10589000BA4602780846C0780AB9012870D089460D
:1058A00008B13A4C65E03A4C63E06078022804D0D5
:1058B000042809D005285AD117E0617999F8010028
:1058C000814254D0608853E0A7783079E5784FF072
:1058D0000008B8424BD1B078A84248D12D484FF0CB
:1058E000010A10F807B0C55541E03079B8423ED101
:1058F000A07800F08F000190000605D5019800F017
:105900000F014FF4803001E00199012088400090A0
:10591000B078A84217D1D9F80810009A2046114350
:10592000C9F80810D9F80C109143C9F80C10FFF70A
:1059300025F80198FFF7BCF8019800F077F8009976
:1059400048EA010813E05D4511D1009918EA010FFA
:105950000DD1D9F80810009A9143C9F80810D9F868
:105960000C109143C9F80C100198FFF79EF82078AD
:1059700004442078002898D15046BDE8FC9FFFE7FA
:105980000020FAE7900000208D610008BA6200084C
:105990004E620008390000201C49002008601C49A4
:1059A000096819B14FF400514A0001E000210A468C
:1059B0001143184A1268002A02D000BF4FF4007247
:1059C00041EA020102D04FF4807201E04FF0000280
:1059D00041EA0201104A41F41C411160104B0F4989
:1059E0004FF04002186048684FF0C00302604FF06B
:1059F000800282600B8048F2FF71C16009494FF458
:105A0000485008600848026070470000445C00404D
:105A1000C0610008BC610008405C004044000020F8
:105A2000505C0040005C00404C5C0040FBF79CBCBC
:105A3000FEF73CBF10B5FFF7BBFBBDE81040FEF71B
:105A400039BF0000002903D1024940F080000860FE
:105A5000704700004C5C004041F21001FBF798BC1D
:105A600001490020FFF7A6BC90000020002211464B
:105A7000802000F01DB8000001490020FFF79ABC0B
:105A8000BC1100200448016841F008010160016870
:105A900041F0040101607047405C00400248016829
:105AA00021F0080101607047405C00407047000031
:105AB000F0B5154F064600F00F037868144600EB6A
:105AC0000310124A006802EB40020020651C04E04B
:105AD00031F802CB42F804CB401CB0EB550FF7D3A2
